{
  "_format": "hh-sol-artifact-1",
  "contractName": "BOREDPUNK",
  "sourceName": "contracts/BoredPunk.sol",
  "abi": [
    {
      "inputs": [],
      "stateMutability": "nonpayable",
      "type": "constructor"
    },
    {
      "inputs": [],
      "name": "ApprovalCallerNotOwnerNorApproved",
      "type": "error"
    },
    {
      "inputs": [],
      "name": "ApprovalQueryForNonexistentToken",
      "type": "error"
    },
    {
      "inputs": [],
      "name": "ApprovalToCurrentOwner",
      "type": "error"
    },
    {
      "inputs": [],
      "name": "ApproveToCaller",
      "type": "error"
    },
    {
      "inputs": [],
      "name": "BalanceQueryForZeroAddress",
      "type": "error"
    },
    {
      "inputs": [],
      "name": "MintToZeroAddress",
      "type": "error"
    },
    {
      "inputs": [],
      "name": "MintZeroQuantity",
      "type": "error"
    },
    {
      "inputs": [],
      "name": "OwnerQueryForNonexistentToken",
      "type": "error"
    },
    {
      "inputs": [],
      "name": "TransferCallerNotOwnerNorApproved",
      "type": "error"
    },
    {
      "inputs": [],
      "name": "TransferFromIncorrectOwner",
      "type": "error"
    },
    {
      "inputs": [],
      "name": "TransferToNonERC721ReceiverImplementer",
      "type": "error"
    },
    {
      "inputs": [],
      "name": "TransferToZeroAddress",
      "type": "error"
    },
    {
      "inputs": [],
      "name": "URIQueryForNonexistentToken",
      "type": "error"
    },
    {
      "anonymous": false,
      "inputs": [
        {
          "indexed": true,
          "internalType": "address",
          "name": "owner",
          "type": "address"
        },
        {
          "indexed": true,
          "internalType": "address",
          "name": "approved",
          "type": "address"
        },
        {
          "indexed": true,
          "internalType": "uint256",
          "name": "tokenId",
          "type": "uint256"
        }
      ],
      "name": "Approval",
      "type": "event"
    },
    {
      "anonymous": false,
      "inputs": [
        {
          "indexed": true,
          "internalType": "address",
          "name": "owner",
          "type": "address"
        },
        {
          "indexed": true,
          "internalType": "address",
          "name": "operator",
          "type": "address"
        },
        {
          "indexed": false,
          "internalType": "bool",
          "name": "approved",
          "type": "bool"
        }
      ],
      "name": "ApprovalForAll",
      "type": "event"
    },
    {
      "anonymous": false,
      "inputs": [
        {
          "indexed": true,
          "internalType": "address",
          "name": "from",
          "type": "address"
        },
        {
          "indexed": true,
          "internalType": "address",
          "name": "to",
          "type": "address"
        },
        {
          "indexed": true,
          "internalType": "uint256",
          "name": "tokenId",
          "type": "uint256"
        }
      ],
      "name": "Transfer",
      "type": "event"
    },
    {
      "inputs": [
        {
          "internalType": "address",
          "name": "to",
          "type": "address"
        },
        {
          "internalType": "uint256",
          "name": "tokenId",
          "type": "uint256"
        }
      ],
      "name": "approve",
      "outputs": [],
      "stateMutability": "nonpayable",
      "type": "function"
    },
    {
      "inputs": [
        {
          "internalType": "address",
          "name": "owner",
          "type": "address"
        }
      ],
      "name": "balanceOf",
      "outputs": [
        {
          "internalType": "uint256",
          "name": "",
          "type": "uint256"
        }
      ],
      "stateMutability": "view",
      "type": "function"
    },
    {
      "inputs": [
        {
          "internalType": "uint256",
          "name": "tokenId",
          "type": "uint256"
        }
      ],
      "name": "getApproved",
      "outputs": [
        {
          "internalType": "address",
          "name": "",
          "type": "address"
        }
      ],
      "stateMutability": "view",
      "type": "function"
    },
    {
      "inputs": [
        {
          "internalType": "address",
          "name": "owner",
          "type": "address"
        },
        {
          "internalType": "address",
          "name": "operator",
          "type": "address"
        }
      ],
      "name": "isApprovedForAll",
      "outputs": [
        {
          "internalType": "bool",
          "name": "",
          "type": "bool"
        }
      ],
      "stateMutability": "view",
      "type": "function"
    },
    {
      "inputs": [
        {
          "internalType": "uint256",
          "name": "quantity",
          "type": "uint256"
        }
      ],
      "name": "mint",
      "outputs": [],
      "stateMutability": "payable",
      "type": "function"
    },
    {
      "inputs": [],
      "name": "name",
      "outputs": [
        {
          "internalType": "string",
          "name": "",
          "type": "string"
        }
      ],
      "stateMutability": "view",
      "type": "function"
    },
    {
      "inputs": [
        {
          "internalType": "uint256",
          "name": "tokenId",
          "type": "uint256"
        }
      ],
      "name": "ownerOf",
      "outputs": [
        {
          "internalType": "address",
          "name": "",
          "type": "address"
        }
      ],
      "stateMutability": "view",
      "type": "function"
    },
    {
      "inputs": [
        {
          "internalType": "address",
          "name": "from",
          "type": "address"
        },
        {
          "internalType": "address",
          "name": "to",
          "type": "address"
        },
        {
          "internalType": "uint256",
          "name": "tokenId",
          "type": "uint256"
        }
      ],
      "name": "safeTransferFrom",
      "outputs": [],
      "stateMutability": "nonpayable",
      "type": "function"
    },
    {
      "inputs": [
        {
          "internalType": "address",
          "name": "from",
          "type": "address"
        },
        {
          "internalType": "address",
          "name": "to",
          "type": "address"
        },
        {
          "internalType": "uint256",
          "name": "tokenId",
          "type": "uint256"
        },
        {
          "internalType": "bytes",
          "name": "_data",
          "type": "bytes"
        }
      ],
      "name": "safeTransferFrom",
      "outputs": [],
      "stateMutability": "nonpayable",
      "type": "function"
    },
    {
      "inputs": [
        {
          "internalType": "address",
          "name": "operator",
          "type": "address"
        },
        {
          "internalType": "bool",
          "name": "approved",
          "type": "bool"
        }
      ],
      "name": "setApprovalForAll",
      "outputs": [],
      "stateMutability": "nonpayable",
      "type": "function"
    },
    {
      "inputs": [
        {
          "internalType": "bytes4",
          "name": "interfaceId",
          "type": "bytes4"
        }
      ],
      "name": "supportsInterface",
      "outputs": [
        {
          "internalType": "bool",
          "name": "",
          "type": "bool"
        }
      ],
      "stateMutability": "view",
      "type": "function"
    },
    {
      "inputs": [],
      "name": "symbol",
      "outputs": [
        {
          "internalType": "string",
          "name": "",
          "type": "string"
        }
      ],
      "stateMutability": "view",
      "type": "function"
    },
    {
      "inputs": [
        {
          "internalType": "uint256",
          "name": "tokenId",
          "type": "uint256"
        }
      ],
      "name": "tokenURI",
      "outputs": [
        {
          "internalType": "string",
          "name": "",
          "type": "string"
        }
      ],
      "stateMutability": "view",
      "type": "function"
    },
    {
      "inputs": [],
      "name": "totalSupply",
      "outputs": [
        {
          "internalType": "uint256",
          "name": "",
          "type": "uint256"
        }
      ],
      "stateMutability": "view",
      "type": "function"
    },
    {
      "inputs": [
        {
          "internalType": "address",
          "name": "from",
          "type": "address"
        },
        {
          "internalType": "address",
          "name": "to",
          "type": "address"
        },
        {
          "internalType": "uint256",
          "name": "tokenId",
          "type": "uint256"
        }
      ],
      "name": "transferFrom",
      "outputs": [],
      "stateMutability": "nonpayable",
      "type": "function"
    }
  ],
  "bytecode": "0x60806040523480156200001157600080fd5b506040518060400160405280600981526020017f426f72656450756e6b00000000000000000000000000000000000000000000008152506040518060400160405280600981526020017f424f52454450554e4b0000000000000000000000000000000000000000000000815250816002908051906020019062000096929190620000d3565b508060039080519060200190620000af929190620000d3565b50620000c0620000ce60201b60201c565b6000819055505050620001e8565b600090565b828054620000e19062000183565b90600052602060002090601f01602090048101928262000105576000855562000151565b82601f106200012057805160ff191683800117855562000151565b8280016001018555821562000151579182015b828111156200015057825182559160200191906001019062000133565b5b50905062000160919062000164565b5090565b5b808211156200017f57600081600090555060010162000165565b5090565b600060028204905060018216806200019c57607f821691505b60208210811415620001b357620001b2620001b9565b5b50919050565b7f4e487b7100000000000000000000000000000000000000000000000000000000600052602260045260246000fd5b6124ef80620001f86000396000f3fe6080604052600436106100e85760003560e01c80636352211e1161008a578063a22cb46511610059578063a22cb465146102f9578063b88d4fde14610322578063c87b56dd1461034b578063e985e9c514610388576100e8565b80636352211e1461023857806370a082311461027557806395d89b41146102b2578063a0712d68146102dd576100e8565b8063095ea7b3116100c6578063095ea7b31461019257806318160ddd146101bb57806323b872dd146101e657806342842e0e1461020f576100e8565b806301ffc9a7146100ed57806306fdde031461012a578063081812fc14610155575b600080fd5b3480156100f957600080fd5b50610114600480360381019061010f9190611e7b565b6103c5565b6040516101219190612051565b60405180910390f35b34801561013657600080fd5b5061013f6104a7565b60405161014c919061206c565b60405180910390f35b34801561016157600080fd5b5061017c60048036038101906101779190611ecd565b610539565b6040516101899190611fea565b60405180910390f35b34801561019e57600080fd5b506101b960048036038101906101b49190611e3f565b6105b5565b005b3480156101c757600080fd5b506101d06106c0565b6040516101dd919061208e565b60405180910390f35b3480156101f257600080fd5b5061020d60048036038101906102089190611d39565b6106d7565b005b34801561021b57600080fd5b5061023660048036038101906102319190611d39565b6106e7565b005b34801561024457600080fd5b5061025f600480360381019061025a9190611ecd565b610707565b60405161026c9190611fea565b60405180910390f35b34801561028157600080fd5b5061029c60048036038101906102979190611cd4565b61071d565b6040516102a9919061208e565b60405180910390f35b3480156102be57600080fd5b506102c76107ed565b6040516102d4919061206c565b60405180910390f35b6102f760048036038101906102f29190611ecd565b61087f565b005b34801561030557600080fd5b50610320600480360381019061031b9190611e03565b61088c565b005b34801561032e57600080fd5b5061034960048036038101906103449190611d88565b610a04565b005b34801561035757600080fd5b50610372600480360381019061036d9190611ecd565b610a80565b60405161037f919061206c565b60405180910390f35b34801561039457600080fd5b506103af60048036038101906103aa9190611cfd565b610b1f565b6040516103bc9190612051565b60405180910390f35b60007f80ac58cd000000000000000000000000000000000000000000000000000000007bffffffffffffffffffffffffffffffffffffffffffffffffffffffff1916827bffffffffffffffffffffffffffffffffffffffffffffffffffffffff1916148061049057507f5b5e139f000000000000000000000000000000000000000000000000000000007bffffffffffffffffffffffffffffffffffffffffffffffffffffffff1916827bffffffffffffffffffffffffffffffffffffffffffffffffffffffff1916145b806104a0575061049f82610bb3565b5b9050919050565b6060600280546104b6906122b3565b80601f01602080910402602001604051908101604052809291908181526020018280546104e2906122b3565b801561052f5780601f106105045761010080835404028352916020019161052f565b820191906000526020600020905b81548152906001019060200180831161051257829003601f168201915b5050505050905090565b600061054482610c1d565b61057a576040517fcf4700e400000000000000000000000000000000000000000000000000000000815260040160405180910390fd5b6006600083815260200190815260200160002060009054906101000a900473ffffffffffffffffffffffffffffffffffffffff169050919050565b60006105c082610707565b90508073ffffffffffffffffffffffffffffffffffffffff168373ffffffffffffffffffffffffffffffffffffffff161415610628576040517f943f7b8c00000000000000000000000000000000000000000000000000000000815260040160405180910390fd5b8073ffffffffffffffffffffffffffffffffffffffff16610647610c6b565b73ffffffffffffffffffffffffffffffffffffffff1614158015610679575061067781610672610c6b565b610b1f565b155b156106b0576040517fcfb3b94200000000000000000000000000000000000000000000000000000000815260040160405180910390fd5b6106bb838383610c73565b505050565b60006106ca610d25565b6001546000540303905090565b6106e2838383610d2a565b505050565b61070283838360405180602001604052806000815250610a04565b505050565b6000610712826111e0565b600001519050919050565b60008073ffffffffffffffffffffffffffffffffffffffff168273ffffffffffffffffffffffffffffffffffffffff161415610785576040517f8f4eb60400000000000000000000000000000000000000000000000000000000815260040160405180910390fd5b600560008373ffffffffffffffffffffffffffffffffffffffff1673ffffffffffffffffffffffffffffffffffffffff16815260200190815260200160002060000160009054906101000a900467ffffffffffffffff1667ffffffffffffffff169050919050565b6060600380546107fc906122b3565b80601f0160208091040260200160405190810160405280929190818152602001828054610828906122b3565b80156108755780601f1061084a57610100808354040283529160200191610875565b820191906000526020600020905b81548152906001019060200180831161085857829003601f168201915b5050505050905090565b610889338261146f565b50565b610894610c6b565b73ffffffffffffffffffffffffffffffffffffffff168273ffffffffffffffffffffffffffffffffffffffff1614156108f9576040517fb06307db00000000000000000000000000000000000000000000000000000000815260040160405180910390fd5b8060076000610906610c6b565b73ffffffffffffffffffffffffffffffffffffffff1673ffffffffffffffffffffffffffffffffffffffff16815260200190815260200160002060008473ffffffffffffffffffffffffffffffffffffffff1673ffffffffffffffffffffffffffffffffffffffff16815260200190815260200160002060006101000a81548160ff0219169083151502179055508173ffffffffffffffffffffffffffffffffffffffff166109b3610c6b565b73ffffffffffffffffffffffffffffffffffffffff167f17307eab39ab6107e8899845ad3d59bd9653f200f220920489ca2b5937696c31836040516109f89190612051565b60405180910390a35050565b610a0f848484610d2a565b610a2e8373ffffffffffffffffffffffffffffffffffffffff1661148d565b8015610a435750610a41848484846114b0565b155b15610a7a576040517fd1a57ed600000000000000000000000000000000000000000000000000000000815260040160405180910390fd5b50505050565b6060610a8b82610c1d565b610ac1576040517fa14c4b5000000000000000000000000000000000000000000000000000000000815260040160405180910390fd5b6000610acb611610565b9050600081511415610aec5760405180602001604052806000815250610b17565b80610af684611627565b604051602001610b07929190611fc6565b6040516020818303038152906040525b915050919050565b6000600760008473ffffffffffffffffffffffffffffffffffffffff1673ffffffffffffffffffffffffffffffffffffffff16815260200190815260200160002060008373ffffffffffffffffffffffffffffffffffffffff1673ffffffffffffffffffffffffffffffffffffffff16815260200190815260200160002060009054906101000a900460ff16905092915050565b60007f01ffc9a7000000000000000000000000000000000000000000000000000000007bffffffffffffffffffffffffffffffffffffffffffffffffffffffff1916827bffffffffffffffffffffffffffffffffffffffffffffffffffffffff1916149050919050565b600081610c28610d25565b11158015610c37575060005482105b8015610c64575060046000838152602001908152602001600020600001601c9054906101000a900460ff16155b9050919050565b600033905090565b826006600084815260200190815260200160002060006101000a81548173ffffffffffffffffffffffffffffffffffffffff021916908373ffffffffffffffffffffffffffffffffffffffff160217905550818373ffffffffffffffffffffffffffffffffffffffff168273ffffffffffffffffffffffffffffffffffffffff167f8c5be1e5ebec7d5bd14f71427d1e84f3dd0314c0f7b2291e5b200ac8c7c3b92560405160405180910390a4505050565b600090565b6000610d35826111e0565b90508373ffffffffffffffffffffffffffffffffffffffff16816000015173ffffffffffffffffffffffffffffffffffffffff1614610da0576040517fa114810000000000000000000000000000000000000000000000000000000000815260040160405180910390fd5b60008473ffffffffffffffffffffffffffffffffffffffff16610dc1610c6b565b73ffffffffffffffffffffffffffffffffffffffff161480610df05750610def85610dea610c6b565b610b1f565b5b80610e355750610dfe610c6b565b73ffffffffffffffffffffffffffffffffffffffff16610e1d84610539565b73ffffffffffffffffffffffffffffffffffffffff16145b905080610e6e576040517f59c896be00000000000000000000000000000000000000000000000000000000815260040160405180910390fd5b600073ffffffffffffffffffffffffffffffffffffffff168473ffffffffffffffffffffffffffffffffffffffff161415610ed5576040517fea553b3400000000000000000000000000000000000000000000000000000000815260040160405180910390fd5b610ee285858560016117d4565b610eee60008487610c73565b6001600560008773ffffffffffffffffffffffffffffffffffffffff1673ffffffffffffffffffffffffffffffffffffffff16815260200190815260200160002060000160008282829054906101000a900467ffffffffffffffff160392506101000a81548167ffffffffffffffff021916908367ffffffffffffffff1602179055506001600560008673ffffffffffffffffffffffffffffffffffffffff1673ffffffffffffffffffffffffffffffffffffffff16815260200190815260200160002060000160008282829054906101000a900467ffffffffffffffff160192506101000a81548167ffffffffffffffff021916908367ffffffffffffffff1602179055506000600460008581526020019081526020016000209050848160000160006101000a81548173ffffffffffffffffffffffffffffffffffffffff021916908373ffffffffffffffffffffffffffffffffffffffff160217905550428160000160146101000a81548167ffffffffffffffff021916908367ffffffffffffffff16021790555060006001850190506000600460008381526020019081526020016000209050600073ffffffffffffffffffffffffffffffffffffffff168160000160009054906101000a900473ffffffffffffffffffffffffffffffffffffffff1673ffffffffffffffffffffffffffffffffffffffff16141561116e57600054821461116d57878160000160006101000a81548173ffffffffffffffffffffffffffffffffffffffff021916908373ffffffffffffffffffffffffffffffffffffffff16021790555084602001518160000160146101000a81548167ffffffffffffffff021916908367ffffffffffffffff1602179055505b5b505050828473ffffffffffffffffffffffffffffffffffffffff168673ffffffffffffffffffffffffffffffffffffffff167fddf252ad1be2c89b69c2b068fc378daa952ba7f163c4a11628f55a4df523b3ef60405160405180910390a46111d985858560016117da565b5050505050565b6111e8611bc0565b6000829050806111f6610d25565b11158015611205575060005481105b15611438576000600460008381526020019081526020016000206040518060600160405290816000820160009054906101000a900473ffffffffffffffffffffffffffffffffffffffff1673ffffffffffffffffffffffffffffffffffffffff1673ffffffffffffffffffffffffffffffffffffffff1681526020016000820160149054906101000a900467ffffffffffffffff1667ffffffffffffffff1667ffffffffffffffff16815260200160008201601c9054906101000a900460ff1615151515815250509050806040015161143657600073ffffffffffffffffffffffffffffffffffffffff16816000015173ffffffffffffffffffffffffffffffffffffffff161461131a57809250505061146a565b5b60011561143557818060019003925050600460008381526020019081526020016000206040518060600160405290816000820160009054906101000a900473ffffffffffffffffffffffffffffffffffffffff1673ffffffffffffffffffffffffffffffffffffffff1673ffffffffffffffffffffffffffffffffffffffff1681526020016000820160149054906101000a900467ffffffffffffffff1667ffffffffffffffff1667ffffffffffffffff16815260200160008201601c9054906101000a900460ff1615151515815250509050600073ffffffffffffffffffffffffffffffffffffffff16816000015173ffffffffffffffffffffffffffffffffffffffff161461143057809250505061146a565b61131b565b5b505b6040517fdf2d9b4200000000000000000000000000000000000000000000000000000000815260040160405180910390fd5b919050565b6114898282604051806020016040528060008152506117e0565b5050565b6000808273ffffffffffffffffffffffffffffffffffffffff163b119050919050565b60008373ffffffffffffffffffffffffffffffffffffffff1663150b7a026114d6610c6b565b8786866040518563ffffffff1660e01b81526004016114f89493929190612005565b602060405180830381600087803b15801561151257600080fd5b505af192505050801561154357506040513d601f19601f820116820180604052508101906115409190611ea4565b60015b6115bd573d8060008114611573576040519150601f19603f3d011682016040523d82523d6000602084013e611578565b606091505b506000815114156115b5576040517fd1a57ed600000000000000000000000000000000000000000000000000000000815260040160405180910390fd5b805181602001fd5b63150b7a0260e01b7bffffffffffffffffffffffffffffffffffffffffffffffffffffffff1916817bffffffffffffffffffffffffffffffffffffffffffffffffffffffff191614915050949350505050565b606060405180602001604052806000815250905090565b6060600082141561166f576040518060400160405280600181526020017f300000000000000000000000000000000000000000000000000000000000000081525090506117cf565b600082905060005b600082146116a157808061168a90612316565b915050600a8261169a9190612198565b9150611677565b60008167ffffffffffffffff8111156116e3577f4e487b7100000000000000000000000000000000000000000000000000000000600052604160045260246000fd5b6040519080825280601f01601f1916602001820160405280156117155781602001600182028036833780820191505090505b5090505b600085146117c85760018261172e91906121c9565b9150600a8561173d919061235f565b60306117499190612142565b60f81b818381518110611785577f4e487b7100000000000000000000000000000000000000000000000000000000600052603260045260246000fd5b60200101907effffffffffffffffffffffffffffffffffffffffffffffffffffffffffffff1916908160001a905350600a856117c19190612198565b9450611719565b8093505050505b919050565b50505050565b50505050565b6117ed83838360016117f2565b505050565b600080549050600073ffffffffffffffffffffffffffffffffffffffff168573ffffffffffffffffffffffffffffffffffffffff16141561185f576040517f2e07630000000000000000000000000000000000000000000000000000000000815260040160405180910390fd5b600084141561189a576040517fb562e8dd00000000000000000000000000000000000000000000000000000000815260040160405180910390fd5b6118a760008683876117d4565b83600560008773ffffffffffffffffffffffffffffffffffffffff1673ffffffffffffffffffffffffffffffffffffffff16815260200190815260200160002060000160008282829054906101000a900467ffffffffffffffff160192506101000a81548167ffffffffffffffff021916908367ffffffffffffffff16021790555083600560008773ffffffffffffffffffffffffffffffffffffffff1673ffffffffffffffffffffffffffffffffffffffff16815260200190815260200160002060000160088282829054906101000a900467ffffffffffffffff160192506101000a81548167ffffffffffffffff021916908367ffffffffffffffff160217905550846004600083815260200190815260200160002060000160006101000a81548173ffffffffffffffffffffffffffffffffffffffff021916908373ffffffffffffffffffffffffffffffffffffffff160217905550426004600083815260200190815260200160002060000160146101000a81548167ffffffffffffffff021916908367ffffffffffffffff160217905550600081905060008582019050838015611a715750611a708773ffffffffffffffffffffffffffffffffffffffff1661148d565b5b15611b37575b818773ffffffffffffffffffffffffffffffffffffffff16600073ffffffffffffffffffffffffffffffffffffffff167fddf252ad1be2c89b69c2b068fc378daa952ba7f163c4a11628f55a4df523b3ef60405160405180910390a4611ae660008884806001019550886114b0565b611b1c576040517fd1a57ed600000000000000000000000000000000000000000000000000000000815260040160405180910390fd5b80821415611a77578260005414611b3257600080fd5b611ba3565b5b818060010192508773ffffffffffffffffffffffffffffffffffffffff16600073ffffffffffffffffffffffffffffffffffffffff167fddf252ad1be2c89b69c2b068fc378daa952ba7f163c4a11628f55a4df523b3ef60405160405180910390a480821415611b38575b816000819055505050611bb960008683876117da565b5050505050565b6040518060600160405280600073ffffffffffffffffffffffffffffffffffffffff168152602001600067ffffffffffffffff1681526020016000151581525090565b6000611c16611c11846120ce565b6120a9565b905082815260208101848484011115611c2e57600080fd5b611c39848285612271565b509392505050565b600081359050611c508161245d565b92915050565b600081359050611c6581612474565b92915050565b600081359050611c7a8161248b565b92915050565b600081519050611c8f8161248b565b92915050565b600082601f830112611ca657600080fd5b8135611cb6848260208601611c03565b91505092915050565b600081359050611cce816124a2565b92915050565b600060208284031215611ce657600080fd5b6000611cf484828501611c41565b91505092915050565b60008060408385031215611d1057600080fd5b6000611d1e85828601611c41565b9250506020611d2f85828601611c41565b9150509250929050565b600080600060608486031215611d4e57600080fd5b6000611d5c86828701611c41565b9350506020611d6d86828701611c41565b9250506040611d7e86828701611cbf565b9150509250925092565b60008060008060808587031215611d9e57600080fd5b6000611dac87828801611c41565b9450506020611dbd87828801611c41565b9350506040611dce87828801611cbf565b925050606085013567ffffffffffffffff811115611deb57600080fd5b611df787828801611c95565b91505092959194509250565b60008060408385031215611e1657600080fd5b6000611e2485828601611c41565b9250506020611e3585828601611c56565b9150509250929050565b60008060408385031215611e5257600080fd5b6000611e6085828601611c41565b9250506020611e7185828601611cbf565b9150509250929050565b600060208284031215611e8d57600080fd5b6000611e9b84828501611c6b565b91505092915050565b600060208284031215611eb657600080fd5b6000611ec484828501611c80565b91505092915050565b600060208284031215611edf57600080fd5b6000611eed84828501611cbf565b91505092915050565b611eff816121fd565b82525050565b611f0e8161220f565b82525050565b6000611f1f826120ff565b611f298185612115565b9350611f39818560208601612280565b611f428161244c565b840191505092915050565b6000611f588261210a565b611f628185612126565b9350611f72818560208601612280565b611f7b8161244c565b840191505092915050565b6000611f918261210a565b611f9b8185612137565b9350611fab818560208601612280565b80840191505092915050565b611fc081612267565b82525050565b6000611fd28285611f86565b9150611fde8284611f86565b91508190509392505050565b6000602082019050611fff6000830184611ef6565b92915050565b600060808201905061201a6000830187611ef6565b6120276020830186611ef6565b6120346040830185611fb7565b81810360608301526120468184611f14565b905095945050505050565b60006020820190506120666000830184611f05565b92915050565b600060208201905081810360008301526120868184611f4d565b905092915050565b60006020820190506120a36000830184611fb7565b92915050565b60006120b36120c4565b90506120bf82826122e5565b919050565b6000604051905090565b600067ffffffffffffffff8211156120e9576120e861241d565b5b6120f28261244c565b9050602081019050919050565b600081519050919050565b600081519050919050565b600082825260208201905092915050565b600082825260208201905092915050565b600081905092915050565b600061214d82612267565b915061215883612267565b9250827fffffffffffffffffffffffffffffffffffffffffffffffffffffffffffffffff0382111561218d5761218c612390565b5b828201905092915050565b60006121a382612267565b91506121ae83612267565b9250826121be576121bd6123bf565b5b828204905092915050565b60006121d482612267565b91506121df83612267565b9250828210156121f2576121f1612390565b5b828203905092915050565b600061220882612247565b9050919050565b60008115159050919050565b60007fffffffff0000000000000000000000000000000000000000000000000000000082169050919050565b600073ffffffffffffffffffffffffffffffffffffffff82169050919050565b6000819050919050565b82818337600083830152505050565b60005b8381101561229e578082015181840152602081019050612283565b838111156122ad576000848401525b50505050565b600060028204905060018216806122cb57607f821691505b602082108114156122df576122de6123ee565b5b50919050565b6122ee8261244c565b810181811067ffffffffffffffff8211171561230d5761230c61241d565b5b80604052505050565b600061232182612267565b91507fffffffffffffffffffffffffffffffffffffffffffffffffffffffffffffffff82141561235457612353612390565b5b600182019050919050565b600061236a82612267565b915061237583612267565b925082612385576123846123bf565b5b828206905092915050565b7f4e487b7100000000000000000000000000000000000000000000000000000000600052601160045260246000fd5b7f4e487b7100000000000000000000000000000000000000000000000000000000600052601260045260246000fd5b7f4e487b7100000000000000000000000000000000000000000000000000000000600052602260045260246000fd5b7f4e487b7100000000000000000000000000000000000000000000000000000000600052604160045260246000fd5b6000601f19601f8301169050919050565b612466816121fd565b811461247157600080fd5b50565b61247d8161220f565b811461248857600080fd5b50565b6124948161221b565b811461249f57600080fd5b50565b6124ab81612267565b81146124b657600080fd5b5056fea2646970667358221220dd3815b07d8c5b8bd4ff667bbbe6796c32c8672a696995688e5b640f6b9a796464736f6c63430008040033",
  "linkReferences": {},
  "deployedLinkReferences": {}
}